{
  "contractName": "CarSharing",
  "abi": [
    {
      "inputs": [],
      "payable": false,
      "stateMutability": "nonpayable",
      "type": "constructor"
    },
    {
      "constant": true,
      "inputs": [
        {
          "internalType": "uint256",
          "name": "",
          "type": "uint256"
        }
      ],
      "name": "candidates",
      "outputs": [
        {
          "internalType": "uint256",
          "name": "id",
          "type": "uint256"
        },
        {
          "internalType": "string",
          "name": "departure",
          "type": "string"
        },
        {
          "internalType": "string",
          "name": "arrival",
          "type": "string"
        },
        {
          "internalType": "string",
          "name": "description",
          "type": "string"
        },
        {
          "internalType": "uint256",
          "name": "seatNumber",
          "type": "uint256"
        }
      ],
      "payable": false,
      "stateMutability": "view",
      "type": "function"
    },
    {
      "constant": true,
      "inputs": [],
      "name": "jouneyCount",
      "outputs": [
        {
          "internalType": "uint256",
          "name": "",
          "type": "uint256"
        }
      ],
      "payable": false,
      "stateMutability": "view",
      "type": "function"
    },
    {
      "constant": true,
      "inputs": [
        {
          "internalType": "uint256",
          "name": "seatNumber",
          "type": "uint256"
        },
        {
          "internalType": "address",
          "name": "ownerAddress",
          "type": "address"
        }
      ],
      "name": "generateSeatsForNewJourney",
      "outputs": [
        {
          "components": [
            {
              "internalType": "uint256",
              "name": "id",
              "type": "uint256"
            },
            {
              "internalType": "bool",
              "name": "isForSale",
              "type": "bool"
            },
            {
              "internalType": "address",
              "name": "seat_owner",
              "type": "address"
            }
          ],
          "internalType": "struct CarSharing.Seat[]",
          "name": "",
          "type": "tuple[]"
        }
      ],
      "payable": false,
      "stateMutability": "pure",
      "type": "function"
    }
  ],
  "bytecode": "0x608060405234801561001057600080fd5b50610769806100206000396000f3fe608060405234801561001057600080fd5b50600436106100415760003560e01c806304e49204146100465780633477ee2e14610064578063572145ba14610098575b600080fd5b61004e6100c8565b60405161005b9190610594565b60405180910390f35b61007e600480360361007991908101906103e0565b6100ce565b60405161008f9594939291906105af565b60405180910390f35b6100b260048036036100ad9190810190610409565b6102cc565b6040516100bf9190610572565b60405180910390f35b60005481565b6001602052806000526040600020600091509050806000015490806001018054600181600116156101000203166002900480601f0160208091040260200160405190810160405280929190818152602001828054600181600116156101000203166002900480156101805780601f1061015557610100808354040283529160200191610180565b820191906000526020600020905b81548152906001019060200180831161016357829003601f168201915b505050505090806002018054600181600116156101000203166002900480601f01602080910402602001604051908101604052809291908181526020018280546001816001161561010002031660029004801561021e5780601f106101f35761010080835404028352916020019161021e565b820191906000526020600020905b81548152906001019060200180831161020157829003601f168201915b505050505090806003018054600181600116156101000203166002900480601f0160208091040260200160405190810160405280929190818152602001828054600181600116156101000203166002900480156102bc5780601f10610291576101008083540402835291602001916102bc565b820191906000526020600020905b81548152906001019060200180831161029f57829003601f168201915b5050505050908060040154905085565b6060808360405190808252806020026020018201604052801561030957816020015b6102f661037d565b8152602001906001900390816102ee5790505b50905060008090505b848110156103725760405180606001604052808281526020016001151581526020018573ffffffffffffffffffffffffffffffffffffffff1681525082828151811061035a57fe5b60200260200101819052508080600101915050610312565b508091505092915050565b604051806060016040528060008152602001600015158152602001600073ffffffffffffffffffffffffffffffffffffffff1681525090565b6000813590506103c5816106f8565b92915050565b6000813590506103da8161070f565b92915050565b6000602082840312156103f257600080fd5b6000610400848285016103cb565b91505092915050565b6000806040838503121561041c57600080fd5b600061042a858286016103cb565b925050602061043b858286016103b6565b9150509250929050565b60006104518383610512565b60608301905092915050565b6104668161066c565b82525050565b600061047782610627565b610481818561064a565b935061048c83610617565b8060005b838110156104bd5781516104a48882610445565b97506104af8361063d565b925050600181019050610490565b5085935050505092915050565b6104d38161067e565b82525050565b60006104e482610632565b6104ee818561065b565b93506104fe8185602086016106b4565b610507816106e7565b840191505092915050565b6060820160008201516105286000850182610554565b50602082015161053b60208501826104ca565b50604082015161054e604085018261045d565b50505050565b61055d816106aa565b82525050565b61056c816106aa565b82525050565b6000602082019050818103600083015261058c818461046c565b905092915050565b60006020820190506105a96000830184610563565b92915050565b600060a0820190506105c46000830188610563565b81810360208301526105d681876104d9565b905081810360408301526105ea81866104d9565b905081810360608301526105fe81856104d9565b905061060d6080830184610563565b9695505050505050565b6000819050602082019050919050565b600081519050919050565b600081519050919050565b6000602082019050919050565b600082825260208201905092915050565b600082825260208201905092915050565b60006106778261068a565b9050919050565b60008115159050919050565b600073ffffffffffffffffffffffffffffffffffffffff82169050919050565b6000819050919050565b60005b838110156106d25780820151818401526020810190506106b7565b838111156106e1576000848401525b50505050565b6000601f19601f8301169050919050565b6107018161066c565b811461070c57600080fd5b50565b610718816106aa565b811461072357600080fd5b5056fea365627a7a72315820659cd3b81f9b110124b8b74145f5b8e9cbd5e02eaab6f660b28fd49de40ec5f76c6578706572696d656e74616cf564736f6c63430005100040",
  "source": "// SPDX-License-Identifier: MIT\r\npragma solidity >=0.4.22 <=0.8.12;\r\npragma experimental ABIEncoderV2;\r\n\r\n\r\ncontract CarSharing {\r\n\r\n    uint public jouneyCount;\r\n\r\n    struct Seat {\r\n        uint id;\r\n        bool isForSale;\r\n        address seat_owner;\r\n    }\r\n\r\n    struct Journey {\r\n        uint id;\r\n        string departure;\r\n        string arrival;\r\n        string description;\r\n        uint seatNumber;\r\n        Seat[] seats;\r\n    }\r\n\r\n\r\n    constructor() public  {\r\n        //addJourney( \"Dijon\", \"Lyon\", \"Vers Lyon part Dieu en twingo jaune\", 3, generateSeatsForNewJourney(3, ownerAddress));\r\n    }\r\n\r\n    mapping(uint => Journey) public candidates;\r\n\r\n    function generateSeatsForNewJourney(uint seatNumber, address ownerAddress) public pure returns(Seat[] memory){\r\n        Seat[] memory seats = new Seat[](seatNumber);\r\n        for (uint i = 0; i < seatNumber; i++) {\r\n            seats[i] = Seat(i, true, ownerAddress);\r\n        }\r\n        return seats;\r\n    }\r\n\r\n    function addJourney(string memory _departure, \r\n        string memory _arrival, \r\n        string memory _description, \r\n        uint _seatNumber,\r\n        Seat[] memory _seats) private {\r\n        jouneyCount ++;\r\n        candidates[jouneyCount] = Journey(jouneyCount, _arrival, _departure, _description, _seatNumber, _seats);\r\n    }\r\n\r\n\r\n    // function vote (uint _candidateId) public {\r\n    //     // require that they haven't voted before\r\n    //     require(!voters[msg.sender]);\r\n\r\n    //     // require a valid candidate\r\n    //     require(_candidateId > 0 && _candidateId <= jouneyCount);\r\n\r\n    //     // record that voter has voted\r\n    //     voters[msg.sender] = true;\r\n\r\n    //     // update candidate vote Count\r\n    //     candidates[_candidateId].voteCount ++;\r\n    // }\r\n\r\n}\r\n",
  "sourcePath": "C:\\Users\\gdefe\\Projects\\Blockchain\\CarSharingDapp\\contracts\\CarSharing.sol",
  "compiler": {
    "name": "solc",
    "version": "0.5.16+commit.9c3226ce.Emscripten.clang"
  },
  "schemaVersion": "3.4.5",
  "updatedAt": "2022-03-08T15:48:11.430Z",
  "networkType": "ethereum",
  "devdoc": {
    "methods": {}
  },
  "userdoc": {
    "methods": {}
  }
}